:020000040000FA
:060000008CEF00F012007D
:02002A000000D4
:04002C002A0EF66E34
:10003000000EF76E000EF86E00010900F550856F96
:100040000900F550866F03E1856701D03DD00900B6
:10005000F550806F0900F550816F0900F550826FEF
:1000600009000900F550E96E0900F550EA6E090033
:1000700009000900F550836F0900F550846F0900ED
:100080000900F6CF87F0F7CF88F0F8CF89F080C06D
:10009000F6FF81C0F7FF82C0F8FF0001835302E141
:1000A000845307E00900F550EE6E8307F8E28407F9
:1000B000F9D787C0F6FF88C0F7FF89C0F8FF0001B5
:0A00C0008507000E865BBFD7120013
:0600CA00FF0EE350036E7F
:1000D000EF0E01D0F30EE76EE72E6CEF00F00C0E82
:1000E000026EE76AE72E72EF00F0022E71EF00F069
:0800F000032E6AEF00F012007C
:0800F80094908B908B80640E44
:10010000E66E65EC00F0E5528B90640EE66E65ECF1
:0801100000F0E552F3D71200E4
:0801180015EE00F025EE00F0E9
:10012000F86A019C16EC00F0A1EC00F07CEC00F009
:04013000FBD71200E7
:0C01340000EE00F00F0EEE6AEA62FDD74C
:020140001200AB
:020142001200A9
:020000040030CA
:0100010002FC
:010003001EDE
:010006008178
:00000001FF
