:020000040000FA
:0600000001EF01F0120007
:02002A000000D4
:04002C00D9CFE6FF43
:10003000E1CFD9FF8B80FE0EDB500A0DF350E66E48
:100040000FEC01F0E5528B90FE0EDB500A0DF350E1
:10005000E66E0FEC01F0E552E552E7CFD9FF120052
:10006000320EE66EEAEC00F0E5521200D9CFE6FF60
:10007000E1CFD9FFE652010EDF6E94908B90958010
:1000800083A007D0EDDFDF2ADF500A0802E2010E6D
:10009000DF6EDF500A0A44E0030A3DE0010A36E061
:1000A0000F0A2FE0010A28E0030A21E0010A1AE002
:1000B000070A13E0010A0CE0030A05E0010EE66EF0
:1000C000B5DFE55232D0010EE66EB0DFE5522DD03D
:1000D000020EE66EABDFE55228D0030EE66EA6DF19
:1000E000E55223D0040EE66EA1DFE5521ED0050EC8
:1000F000E66E9CDFE55219D0060EE66E97DFE552FC
:1001000014D0070EE66E92DFE5520FD0080EE66EB1
:100110008DDFE5520AD0090EE66E88DFE55205D084
:100120000A0EE66E83DFE55200D0AAD7E552E5520B
:06013000E7CFD9FF120029
:0A0136002A0EF66E000EF76E000EA2
:10014000F86E00010900F550856F0900F550866FC3
:1001500003E1856701D03DD00900F550806F0900AB
:10016000F550816F0900F550826F09000900F550C4
:10017000E96E0900F550EA6E090009000900F55022
:10018000836F0900F550846F09000900F6CF87F0EE
:10019000F7CF88F0F8CF89F080C0F6FF81C0F7FF75
:1001A00082C0F8FF0001835302E1845307E0090095
:1001B000F550EE6E8307F8E28407F9D787C0F6FFA3
:1001C00088C0F7FF89C0F8FF00018507000E865B35
:0401D000BFD7120083
:0C01D400FF0EE350036EEF0E01D0F30E9F
:1001E000E76EE72EF1EF00F00C0E026EE76AE72EE5
:1001F000F7EF00F0022EF6EF00F0032EEFEF00F025
:020200001200EA
:0E02020015EE00F025EE00F0F86A019C9BEC72
:0E02100000F024EC01F036EC00F0FBD71200F9
:02021E00FF0ED1
:10022000E350036E1B0E00D001D0200EE76EE72EC8
:0A023000FED7032EFAD700D012000B
:06023A0000EE00F00F0EC3
:08024000EE6AEA62FDD712002C
:020248001200A2
:020000040030CA
:0100010002FC
:010003001EDE
:010006008178
:00000001FF
