:020000040000FA
:06000000DEEF00F012002B
:02002A000000D4
:04002C00D9CFE6FF43
:10003000E1CFD9FF8B80FE0EDB50640DF350E66EEE
:10004000ECEC00F0E5528B90FE0EDB50640DF350AB
:10005000E66EECEC00F0E552E552E7CFD9FF120076
:10006000320EE66EC7EC00F0E5521200D9CFE6FF83
:10007000E1CFD9FFE652010EDF6E94908B90958010
:1000800083A007D0EDDFDF2ADF50050802E2010E72
:10009000DF6EDF50050A21E0010A1AE0070A13E0CB
:1000A000010A0CE0030A05E0010EE66EBFDFE5522F
:1000B00019D0010EE66EBADFE55214D0020EE66EDC
:1000C000B5DFE5520FD0030EE66EB0DFE5520AD081
:1000D000040EE66EABDFE55205D0050EE66EA6DF38
:1000E000E55200D0CDD7E552E552E7CFD9FF120057
:1000F0002A0EF66E000EF76E000EF86E0001090073
:10010000F550856F0900F550866F03E1856701D0D2
:100110003DD00900F550806F0900F550816F09004E
:10012000F550826F09000900F550E96E0900F5509D
:10013000EA6E090009000900F550836F0900F550C7
:10014000846F09000900F6CF87F0F7CF88F0F8CF69
:1001500089F080C0F6FF81C0F7FF82C0F8FF000180
:10016000835302E1845307E00900F550EE6E8307E4
:10017000F8E28407F9D787C0F6FF88C0F7FF89C087
:0E018000F8FF00018507000E865BBFD7120056
:02018E00FF0E62
:10019000E350036EEF0E01D0F30EE76EE72ECEEFC5
:1001A00000F00C0E026EE76AE72ED4EF00F0022E8C
:0C01B000D3EF00F0032ECCEF00F01200A3
:0401BC0015EE00F04C
:1001C00025EE00F0F86A019C78EC00F001EC01F0FB
:0801D00036EC00F0FBD7120031
:0801D800FF0EE350036E1B0E45
:1001E00000D001D0200EE76EE72EFED7032EFAD7FF
:0401F00000D0120029
:0C01F40000EE00F00F0EEE6AEA62FDD78C
:020200001200EA
:020202001200E8
:020000040030CA
:0100010002FC
:010003001EDE
:010006008178
:00000001FF
